{
  "contractName": "StatusSeeker",
  "abi": [
    {
      "constant": true,
      "inputs": [
        {
          "name": "",
          "type": "uint256"
        }
      ],
      "name": "keyWord",
      "outputs": [
        {
          "name": "",
          "type": "string"
        }
      ],
      "payable": false,
      "stateMutability": "view",
      "type": "function"
    }
  ],
  "bytecode": "0x6060604052610180604051908101604052806040805190810160405280600681526020017f637261646c65000000000000000000000000000000000000000000000000000081525081526020016040805190810160405280600481526020017f726163650000000000000000000000000000000000000000000000000000000081525081526020016040805190810160405280600481526020017f747265650000000000000000000000000000000000000000000000000000000081525081526020016040805190810160405280600481526020017f776176650000000000000000000000000000000000000000000000000000000081525081526020016040805190810160405280600481526020017f77696e640000000000000000000000000000000000000000000000000000000081525081526020016040805190810160405280600481526020017f686967680000000000000000000000000000000000000000000000000000000081525081526020016040805190810160405280600381526020017f736974000000000000000000000000000000000000000000000000000000000081525081526020016040805190810160405280600381526020017f646f67000000000000000000000000000000000000000000000000000000000081525081526020016040805190810160405280600381526020017f636174000000000000000000000000000000000000000000000000000000000081525081526020016040805190810160405280600481526020017f66756c6c0000000000000000000000000000000000000000000000000000000081525081526020016040805190810160405280600381526020017f617274000000000000000000000000000000000000000000000000000000000081525081526020016040805190810160405280600581526020017f726f636b73000000000000000000000000000000000000000000000000000000815250815250600090600c6102e39291906102f4565b5034156102ef57600080fd5b610460565b82600c8101928215610336579160200282015b82811115610335578251829080519060200190610325929190610347565b5091602001919060010190610307565b5b50905061034391906103c7565b5090565b828054600181600116156101000203166002900490600052602060002090601f016020900481019282601f1061038857805160ff19168380011785556103b6565b828001600101855582156103b6579182015b828111156103b557825182559160200191906001019061039a565b5b5090506103c391906103f3565b5090565b6103f091905b808211156103ec57600081816103e39190610418565b506001016103cd565b5090565b90565b61041591905b808211156104115760008160009055506001016103f9565b5090565b90565b50805460018160011615610100020316600290046000825580601f1061043e575061045d565b601f01602090049060005260206000209081019061045c91906103f3565b5b50565b6101c08061046f6000396000f300606060405260043610610041576000357c0100000000000000000000000000000000000000000000000000000000900463ffffffff1680634119309f14610046575b600080fd5b341561005157600080fd5b61006760048080359060200190919050506100e2565b6040518080602001828103825283818151815260200191508051906020019080838360005b838110156100a757808201518184015260208101905061008c565b50505050905090810190601f1680156100d45780820380516001836020036101000a031916815260200191505b509250505060405180910390f35b600081600c811015156100f157fe5b016000915090508054600181600116156101000203166002900480601f01602080910402602001604051908101604052809291908181526020018280546001816001161561010002031660029004801561018c5780601f106101615761010080835404028352916020019161018c565b820191906000526020600020905b81548152906001019060200180831161016f57829003601f168201915b5050505050815600a165627a7a7230582022d1cee73e20f4d69d1a7e63de34d133a15ae2f81685c5ba0f39e945d5c8a80b0029",
  "source": "pragma solidity ^0.4.18;\n\ncontract StatusSeeker {\n    string[12] public keyWord = [\"cradle\", \"race\", \"tree\", \"wave\", \"wind\", \"high\", \"sit\", \"dog\", \"cat\", \"full\", \"art\", \"rocks\"];\n}\n",
  "sourcePath": "/Users/andrewtudhope/StatusSeekers/contracts/StatusSeeker.sol",
  "compiler": {
    "name": "solc",
    "version": "0.4.18+commit.9cf6e910.Emscripten.clang"
  },
  "schemaVersion": "1.0.1",
  "updatedAt": "2017-12-23T14:59:29.497Z"
}